:020000040800F2
:1000000000280020E9090008790900087F09000894
:10001000850900088B09000891090008000000000C
:100020000000000000000000000000009709000828
:10003000A309000800000000AF090008BB09000880
:10004000310A0008310A0008310A0008310A0008A4
:10005000310A0008310A0008310A0008310A000894
:10006000310A0008310A0008310A0008310A000884
:10007000310A0008310A0008310A0008310A000874
:10008000310A0008310A0008310A0008310A000864
:10009000310A0008310A0008310A0008310A000854
:1000A000310A0008310A0008310A0008310A000844
:1000B000C9090008310A000800000000310A0008E0
:1000C000310A00080000000000000000310A0008AA
:1000D00000000000310A0008310A0008000000009A
:1000E000310A0008310A0008310A00080000000047
:1000F0000000000000000000000000000000000000
:0C01000000000000000000005FF808F1A3
:10010C0010B5054C237833B9044B13B10448AFF345
:10011C0000800123237010BD280000200000000087
:10012C008C20000808B5034B1BB103490348AFF3FF
:10013C00008008BD000000002C0000208C2000086E
:10014C0080B582B000AF00237B60A6E0574A7B6885
:10015C0052F8232056497B6841F82320554A7B6886
:10016C0052F8232051497B6841F82320524A7B687E
:10017C0052F823309BB21946504800F041FF034619
:10018C0019464C4A7B6842F82310494A7B6852F85E
:10019C00232046497B6851F823309A427AD1434A4E
:1001AC007B6852F8232043497B6851F823309A42EC
:1001BC0070D1434A7B6852F823203E497B6851F842
:1001CC0023309A4239D03B4A7B6852F823203C4971
:1001DC007B6841F82320374A7B6852F82330002B88
:1001EC0022D1384A7B68012142F823107B68022B0C
:1001FC0011D07B68022B12DC7B68002B03D07B6850
:10020C00012B04D00BE0304B02221A6007E02E4B7E
:10021C0003221A6003E02C4B05221A6000BF2B4B03
:10022C004FF4FA621A6035E0264A7B68002142F8E6
:10023C002310254B00221A602CE0244B1B680A3B30
:10024C00224A1360214B1B68002B23D1194A7B686F
:10025C0052F82330002B18D11D4A7B68012142F83B
:10026C0023107B68012B03D07B68022B04D007E0A2
:10027C00154B04221A6003E0134B06221A6000BFD0
:10028C00124B4FF47A721A6004E0114A7B68002119
:10029C0042F823107B6801337B607B68032B7FF76C
:1002AC0055AF00BF00BF0837BD4680BD54000020CD
:1002BC0044000020640000200000002000080140E1
:1002CC007400002084000020140000201000002086
:1002DC009400002080B500AF724B1B68062B00F217
:1002EC00D28001A252F823F0110300082B0300085E
:1002FC005B0300087D030008BF0300080B04000823
:10030C003F040008684B1B68184600F0E9F840F6FB
:10031C00B83000F071FA634B01221A60B3E0634B02
:10032C001B68012B40F0A4805F4B1B68002B04DD85
:10033C005D4B1B68013B5C4A13605B4B1B681846AA
:10034C0000F0CEF84FF47A7000F056FA90E0584B6B
:10035C001B68012B40F08E80554B00221A60524BCB
:10036C0000221A60504B1B68184600F0B9F881E067
:10037C004F4B5B68012B7FD14D4B00225A604A4B8F
:10038C001B680133484A1360474B1968494B83FB80
:10039C0001239A10CB17D21A13469B0013445B000F
:1003AC00CA1A414B1A60404B1B68184600F098F86B
:1003BC0062E0414B5B68012B60D13C4B1B68012B0D
:1003CC005CD1394B1B680133374A1360364B1968C3
:1003DC00384B83FB01239A10CB17D21A13469B0080
:1003EC0013445B00CA1A304B1A602F4B1B6818461B
:1003FC0000F076F84FF47A7000F0FEF93EE02C4BEA
:10040C009B68012B3CD12A4B00229A60264B1B681F
:10041C00013B254A1360244B1B68B3F1FF3F02D10B
:10042C00214B09221A60204B1B68184600F058F823
:10043C0026E0214B9B68012B24D11C4B1B68012B04
:10044C0020D1194B1B68013B174A1360164B1B68D4
:10045C00B3F1FF3F02D1144B09221A60124B1B68F7
:10046C00184600F03DF84FF47A7000F0C5F909E039
:10047C0000BF08E000BF06E000BF04E000BF02E0E0
:10048C0000BF00E000BF0D4B1B68012B07D12021E2
:10049C000B4800F0E4FD4FF47A7000F0C9F900BF8E
:1004AC0080BD00BF1400002018000020EC000020CC
:1004BC00840000206766666694000020F00000202F
:1004CC000008014080B400AF044BDB68034A43F0E2
:1004DC007F03D36000BFBD4680BC7047000C014059
:1004EC0080B582B000AF7860FFF7ECFF7B68092B1A
:1004FC005CD801A252F823F02D0500083B0500083A
:10050C004905000857050008650500087305000833
:10051C00810500088F0500089D050008AB05000843
:10052C00284BDB68274A23F03F03D36045E0254B7B
:10053C00DB68244A23F00603D3603EE0214BDB68E2
:10054C00204A23F05B03D36037E01E4BDB681D4A67
:10055C0023F04F03D36030E01A4BDB68194A23F0C9
:10056C006603D36029E0174BDB68164A23F06D0352
:10057C00D36022E0134BDB68124A23F07D03D36077
:10058C001BE0104BDB680F4A23F00703D36014E029
:10059C000C4BDB680B4A23F07F03D3600DE0094B57
:1005AC00DB68084A23F06F03D36006E0054BDB6879
:1005BC00044A23F06F03D36000BF00BF0837BD4669
:1005CC0080BD00BF000C014080B500AF00F02CFADC
:1005DC0000F016F800F09CF800F04EF8074801F017
:1005EC008FF90920FFF77CFF642000F005F96420E7
:1005FC0000F01EF9FFF76EFEFCE700BFA400002020
:10060C0080B590B000AF07F11803282200211846DE
:10061C0001F02EFD3B1D00221A605A609A60DA60D0
:10062C001A610223BB610123BB621023FB6200230E
:10063C007B6307F11803184600F02AFD0346002BD4
:10064C0001D000F0D3F80F237B600023BB600023A4
:10065C00FB6000233B6100237B613B1D002118469E
:10066C0000F098FF0346002B01D000F0BFF800BF4C
:10067C004037BD4680BD000080B586B000AF07F1A5
:10068C00080300221A605A609A60DA603B46002226
:10069C001A605A601D4B4FF080421A601B4B41F69A
:1006AC003F725A60194B00229A60184B0A22DA608A
:1006BC00164B00221A61154B00229A61134801F067
:1006CC00CFF80346002B01D000F090F84FF4805384
:1006DC00BB6007F1080319460C4801F065FA0346A4
:1006EC00002B01D000F082F800233B6000237B60DC
:1006FC003B461946054801F02DFC0346002B01D062
:10070C0000F074F800BF1837BD4680BDA40000206F
:10071C0080B586B000AF07F1080300221A605A605A
:10072C009A60DA60274B9B69264A43F00403936175
:10073C00244B9B6903F004037B607B68214B9B6912
:10074C00204A43F0080393611E4B9B6903F0080396
:10075C003B603B68002220211B4800F068FC002213
:10076C007F211A4800F063FC2023BB600123FB604F
:10077C0000233B6102237B6107F1080319461248F1
:10078C0000F0C2FA7F23BB600123FB6000233B61B6
:10079C0002237B6107F1080319460C4800F0B4FAF8
:1007AC004FF46043BB600023FB6001233B6107F106
:1007BC0008031946044800F0A7FA00BF1837BD46D5
:1007CC0080BD00BF0010024000080140000C014039
:1007DC0080B582B000AF786000F046F800F062F8A7
:1007EC00FFF7AEFC00BF0837BD4680BD80B400AF3C
:1007FC0072B600BFFEE7000080B483B000AF786033
:10080C007B68084A82FB03129210DB17D31A064A44
:10081C001360064B00221A6000BF0C37BD4680BC2B
:10082C00704700BF67666666F4000020EC0000208D
:10083C0080B483B000AF78607B68084A82FB0312F7
:10084C009210DB17D31A064A1360064B00221A606B
:10085C0000BF0C37BD4680BC704700BF676666663C
:10086C00F8000020F000002080B400AF0B4B1B6898
:10087C00002B0CDD094B1B68013B084A1360074B2E
:10088C001B68002B06D1064B01221A6002E0044BB8
:10089C0000221A6000BFBD4680BC7047F4000020E7
:1008AC00EC00002080B400AF0B4B1B68002B0CDD60
:1008BC00094B1B68013B084A1360074B1B68002B54
:1008CC0006D1064B01221A6002E0044B00221A608A
:1008DC0000BFBD4680BC7047F8000020F00000202F
:1008EC0080B483B000AF0E4B9B690D4A43F00103FB
:1008FC0093610B4B9B6903F001037B607B68084B96
:10090C00DB69074A43F08053D361054BDB6903F085
:10091C0080533B603B6800BF0C37BD4680BC7047C2
:10092C000010024080B584B000AF78607B681B6813
:10093C00B3F1804F13D10C4BDB690B4A43F001032D
:10094C00D361094BDB6903F00103FB60FB680022F8
:10095C0000211C2000F0A1F91C2000F0BAF900BF06
:10096C001037BD4680BD00BF0010024080B400AF00
:10097C00FEE780B400AFFEE780B400AFFEE780B4C2
:10098C0000AFFEE780B400AFFEE780B400AF00BF5D
:10099C00BD4680BC704780B400AF00BFBD4680BC74
:1009AC00704780B400AF00BFBD4680BC704780B5B7
:1009BC0000AF00F07FF800BF80BD000080B500AF35
:1009CC00024800F0E9FF00BF80BD00BFA40000207A
:1009DC0080B400AF00BFBD4680BC70470C480D49C9
:1009EC000D4A002302E0D458C4500433C4188C427E
:1009FC00F9D30A4A0A4C002301E013600432A242E4
:100A0C00FBD3FFF7E5FF01F00FFBFFF7DDFD7047B0
:100A1C000000002028000020CC2000082800002026
:100A2C0000010020FEE7000080B500AF084B1B68FA
:100A3C00074A43F010031360032000F023F90F2042
:100A4C0000F008F8FFF74CFF0023184680BD00BFEC
:100A5C000020024080B582B000AF7860124B1A685B
:100A6C00124B1B7819464FF47A73B3FBF1F3B2FBBC
:100A7C00F3F3184600F03BF90346002B01D0012399
:100A8C000EE07B680F2B0AD8002279684FF0FF30FC
:100A9C0000F003F9064A7B681360002300E0012391
:100AAC0018460837BD4680BD1C00002024000020DD
:100ABC002000002080B400AF054B1B781A46054B74
:100ACC001B681344034A136000BFBD4680BC7047CB
:100ADC0024000020FC00002080B400AF024B1B68F7
:100AEC001846BD4680BC7047FC00002080B485B021
:100AFC0000AF78607B6803F00703FB600C4BDB688E
:100B0C00BB60BA684FF6FF031340BB60FB681A0268
:100B1C00BB68134343F0BF6343F40033BB60044A28
:100B2C00BB68D36000BF1437BD4680BC704700BFA4
:100B3C0000ED00E080B400AF044BDB681B0A03F04F
:100B4C0007031846BD4680BC704700BF00ED00E0AF
:100B5C0080B483B000AF0346FB7197F90730002BCC
:100B6C000BDBFB7903F01F02064997F907305B0991
:100B7C00012000FA02F241F8232000BF0C37BD46D9
:100B8C0080BC704700E100E080B483B000AF034646
:100B9C003960FB7197F90730002B0ADB3B68DAB23E
:100BAC000C4997F907301201D2B20B4483F8002399
:100BBC000AE03B68DAB20849FB7903F00F03043B07
:100BCC001201D2B20B441A7600BF0C37BD4680BC62
:100BDC00704700BF00E100E000ED00E080B489B098
:100BEC0000AFF860B9607A60FB6803F00703FB6143
:100BFC00FB69C3F10703042B28BF0423BB61FB690A
:100C0C000433062B02D9FB69033B00E000237B6114
:100C1C004FF0FF32BB6902FA03F3DA43BB681A40A8
:100C2C007B699A404FF0FF317B6901FA03F3D9439A
:100C3C007B680B40134318462437BD4680BC704775
:100C4C0080B582B000AF78607B68013BB3F1807FE8
:100C5C0001D301230FE00A4A7B68013B53600F214B
:100C6C004FF0FF30FFF790FF054B00229A60044BCA
:100C7C0007221A60002318460837BD4680BD00BF06
:100C8C0010E000E080B582B000AF78607868FFF7C4
:100C9C002DFF00BF0837BD4680BD80B586B000AFC4
:100CAC000346B9607A60FB7300237B61FFF742FF58
:100CBC0078617A68B9687869FFF790FF024697F90E
:100CCC000F3011461846FFF75FFF00BF1837BD46BF
:100CDC0080BD80B582B000AF0346FB7197F9073039
:100CEC001846FFF735FF00BF0837BD4680BD80B5FD
:100CFC0082B000AF78607868FFF7A2FF0346184611
:100D0C000837BD4680BD000080B48BB000AF786062
:100D1C00396000237B6200233B6261E101227B6A24
:100D2C0002FA03F3FB613B681B68FA691340BB6171
:100D3C00BA69FB699A4240F050813B685B68974AFC
:100D4C0093425ED0954A934275D8954A934258D0B7
:100D5C00934A93426FD8934A934252D0914A93420A
:100D6C0069D8914A93424CD08F4A934263D88F4AA8
:100D7C00934246D08D4A93425DD8122B2AD8122B1F
:100D8C0059D801A252F823F00F0E0008E90D000803
:100D9C00FB0D00083D0E0008430E0008430E000832
:100DAC00430E0008430E0008430E0008430E0008D3
:100DBC00430E0008430E0008430E0008430E0008C3
:100DCC00430E0008430E0008430E0008F10D000806
:100DDC00050E0008764A934213D02CE03B68DB6882
:100DEC003B6229E03B68DB6804333B6224E03B68F0
:100DFC00DB6808333B621FE03B68DB680C333B620B
:100E0C001AE03B689B68002B02D104233B6213E081
:100E1C003B689B68012B05D108233B627B68FA6910
:100E2C001A6109E008233B627B68FA695A6103E0A6
:100E3C0000233B6200E000BFBB69FF2B01D87B683D
:100E4C0001E07B6804337B61BB69FF2B02D87B6AB2
:100E5C009B0002E07B6A083B9B003B617B691A6844
:100E6C000F213B6901FA03F3DB431A40396A3B69F2
:100E7C0001FA03F31A437B691A603B685B6803F061
:100E8C008053002B00F0A9804A4B9B69494A43F0E0
:100E9C0001039361474B9B6903F00103BB60BB6883
:100EAC00454A7B6A9B08023352F82330FB607B6A0D
:100EBC0003F003039B000F2202FA03F3DB43FA68EF
:100ECC001340FB607B683D4A93420DD07B683C4AE3
:100EDC00934207D07B683B4A934201D1022304E042
:100EEC00032302E0012300E000237A6A02F00302EC
:100EFC0092009340FA681343FB602F497B6A9B086E
:100F0C000233FA6841F823203B685B6803F48033B2
:100F1C00002B06D02C4B1A682B49BB6913430B6072
:100F2C0006E0294B1A68BB69DB43274913400B6069
:100F3C003B685B6803F40033002B06D0224B5A68E5
:100F4C002149BB6913434B6006E01F4B5A68BB69D0
:100F5C00DB431D4913404B603B685B6803F4801313
:100F6C00002B06D0184B9A681749BB6913438B604A
:100F7C0006E0154B9A68BB69DB43134913408B6041
:100F8C003B685B6803F40013002B1FD00E4BDA6830
:100F9C000D49BB691343CB601FE000BF000032104A
:100FAC00000031100000221000002110000012106F
:100FBC000000111000100240000001400008014028
:100FCC00000C014000100140000401400B4BDA689A
:100FDC00BB69DB4309491340CB607B6A01337B62FD
:100FEC003B681A687B6A22FA03F3002B7FF496AEF7
:100FFC0000BF00BF2C37BD4680BC704700040140C9
:10100C0080B485B000AF78600B467B807B689A68B3
:10101C007B881340002B02D00123FB7301E00023DB
:10102C00FB73FB7B18461437BD4680BC704780B4FD
:10103C0083B000AF78600B467B8013467B707B7867
:10104C00002B03D07A887B681A6103E07B881A0432
:10105C007B681A6100BF0C37BD4680BC704780B4FA
:10106C0085B000AF78600B467B807B68DB68FB60EB
:10107C007A88FB6813401A04FB68D9437B880B40C1
:10108C001A437B681A6100BF1437BD4680BC704799
:10109C0080B586B000AF78607B68002B01D101234E
:1010AC0072E27B681B6803F00103002B00F0878061
:1010BC00924B5B6803F00C03042B0CD08F4B5B68DA
:1010CC0003F00C03082B12D18C4B5B6803F48033B8
:1010DC00B3F5803F0BD1894B1B6803F40033002B15
:1010EC006CD07B685B68002B68D101234CE27B6879
:1010FC005B68B3F5803F06D1804B1B687F4A43F495
:10110C00803313602EE07B685B68002B0CD17B4B2B
:10111C001B687A4A23F480331360784B1B68774A38
:10112C0023F4802313601DE07B685B68B3F5A02F6C
:10113C000CD1724B1B68714A43F4802313606F4BC4
:10114C001B686E4A43F4803313600BE06B4B1B68D7
:10115C006A4A23F480331360684B1B68674A23F494
:10116C00802313607B685B68002B13D0FFF7B4FC03
:10117C00386108E0FFF7B0FC02463B69D31A642BD8
:10118C0001D9032300E25D4B1B6803F40033002BF1
:10119C00F0D014E0FFF7A0FC386108E0FFF79CFCEE
:1011AC0002463B69D31A642B01D90323ECE1534B60
:1011BC001B6803F40033002BF0D100E000BF7B6808
:1011CC001B6803F00203002B63D04C4B5B6803F0ED
:1011DC000C03002B0BD0494B5B6803F00C03082B62
:1011EC001CD1464B5B6803F48033002B16D1434B68
:1011FC001B6803F00203002B05D07B681B69012BD5
:10120C0001D00123C0E13D4B1B6823F0F8027B6841
:10121C005B69DB00394913430B603AE07B681B695F
:10122C00002B20D0364B01221A60FFF755FC386199
:10123C0008E0FFF751FC02463B69D31A022B01D997
:10124C000323A1E12D4B1B6803F00203002BF0D00C
:10125C002A4B1B6823F0F8027B685B69DB0027498B
:10126C0013430B6015E0264B00221A60FFF734FC89
:10127C00386108E0FFF730FC02463B69D31A022BB9
:10128C0001D9032380E11D4B1B6803F00203002BE3
:10129C00F0D17B681B6803F00803002B3AD07B6805
:1012AC009B69002B19D0174B01221A60FFF714FC15
:1012BC00386108E0FFF710FC02463B69D31A022B99
:1012CC0001D9032360E10D4B5B6A03F00203002B91
:1012DC00F0D0012000F0A6FA1CE00A4B00221A60A4
:1012EC00FFF7FAFB38610FE0FFF7F6FB02463B69AC
:1012FC00D31A022B08D9032346E100BF0010024089
:10130C000000424280044242924B5B6A03F00203AB
:10131C00002BE9D17B681B6803F00403002B00F061
:10132C00A6800023FB758B4BDB6903F08053002BED
:10133C000DD1884BDB69874A43F08053D361854BD1
:10134C00DB6903F08053BB60BB680123FB75824BE8
:10135C001B6803F48073002B18D17F4B1B687E4AEB
:10136C0043F480731360FFF7B7FB386108E0FFF7B5
:10137C00B3FB02463B69D31A642B01D9032303E167
:10138C00754B1B6803F48073002BF0D07B68DB6813
:10139C00012B06D16F4B1B6A6E4A43F0010313629B
:1013AC002DE07B68DB68002B0CD16A4B1B6A694A09
:1013BC0023F001031362674B1B6A664A23F0040394
:1013CC0013621CE07B68DB68052B0CD1614B1B6A3C
:1013DC00604A43F0040313625E4B1B6A5D4A43F0A0
:1013EC00010313620BE05B4B1B6A5A4A23F00103A7
:1013FC001362584B1B6A574A23F0040313627B6831
:10140C00DB68002B15D0FFF767FB38610AE0FFF7AC
:10141C0063FB02463B69D31A41F28832934201D9ED
:10142C000323B1E04B4B1B6A03F00203002BEED0FD
:10143C0014E0FFF751FB38610AE0FFF74DFB024661
:10144C003B69D31A41F28832934201D903239BE0C2
:10145C00404B1B6A03F00203002BEED1FB7D012BEA
:10146C0005D13C4BDB693B4A23F08053D3617B684D
:10147C00DB69002B00F08780364B5B6803F00C03B4
:10148C00082B61D07B68DB69022B46D1334B0022E1
:10149C001A60FFF721FB386108E0FFF71DFB0246DD
:1014AC003B69D31A022B01D903236DE0294B1B682E
:1014BC0003F00073002BF0D17B681B6AB3F5803FFF
:1014CC0008D1244B5B6823F400327B689B6821496C
:1014DC0013434B601F4B5B6823F474127B68196ACF
:1014EC007B685B6A0B431B4913434B601B4B01220C
:1014FC001A60FFF7F1FA386108E0FFF7EDFA0246DF
:10150C003B69D31A022B01D903233DE0114B1B6815
:10151C0003F00073002BF0D035E0104B00221A6062
:10152C00FFF7DAFA386108E0FFF7D6FA02463B69B2
:10153C00D31A022B01D9032326E0064B1B6803F0B8
:10154C000073002BF0D11EE07B68DB69012B07D107
:10155C00012319E00010024000700040600042427C
:10156C000B4B5B68FB60FB6803F480327B681B6A87
:10157C009A4206D1FB6803F470127B685B6A9A424C
:10158C0001D0012300E0002318461837BD4680BD6A
:10159C000010024080B584B000AF786039607B6881
:1015AC00002B01D10123D0E06A4B1B6803F0070329
:1015BC003A689A4210D9674B1B6823F007026549B9
:1015CC003B6813430B60634B1B6803F007033A68DB
:1015DC009A4201D00123B8E07B681B6803F0020338
:1015EC00002B20D07B681B6803F00403002B05D074
:1015FC00594B5B68584A43F4E06353607B681B6843
:10160C0003F00803002B05D0534B5B68524A43F49C
:10161C0060535360504B5B6823F0F0027B689B680F
:10162C004D4913434B607B681B6803F00103002B8F
:10163C0040D07B685B68012B07D1474B1B6803F4D8
:10164C000033002B15D101237FE07B685B68022BF4
:10165C0007D1414B1B6803F00073002B09D1012308
:10166C0073E03D4B1B6803F00203002B01D10123F7
:10167C006BE0394B5B6823F003027B685B6836498F
:10168C0013434B60FFF728FAF8600AE0FFF724FADF
:10169C000246FB68D31A41F28832934201D90323E4
:1016AC0053E02D4B5B6803F00C027B685B689B007E
:1016BC009A42EBD1274B1B6803F007033A689A4216
:1016CC0010D2244B1B6823F0070222493B681343BA
:1016DC000B60204B1B6803F007033A689A4201D059
:1016EC00012332E07B681B6803F00403002B08D055
:1016FC00194B5B6823F4E0627B68DB681649134383
:10170C004B607B681B6803F00803002B09D0124B5D
:10171C005B6823F460527B681B69DB000E49134342
:10172C004B6000F021F802460B4B5B681B0903F081
:10173C000F030A49CB5C22FA03F3094A1360094BE5
:10174C001B681846FFF786F9002318461037BD466C
:10175C0080BD00BF0020024000100240B4200008F1
:10176C001C0000202000002090B48AB000AF294B50
:10177C003C1D0FCB84E80F0040F201233B8000237B
:10178C00FB610023BB6100237B6200237B61002390
:10179C003B62214B5B68FB61FB6903F00C03042B80
:1017AC0002D0082B03D02BE01C4B3B622BE0FB69D7
:1017BC009B0C03F00F0328333B4413F8243C7B6150
:1017CC00FB6903F48033002B12D0134B5B685B0C6A
:1017DC0003F0010328333B4413F8283CBB617B69BD
:1017EC000E4A03FB02F2BB69B2FBF3F37B6204E02B
:1017FC007B690B4A02FB03F37B627B6A3B6202E070
:10180C00064B3B6200BF3B6A18462837BD4690BC6E
:10181C00704700BFA42000080010024000127A009C
:10182C0000093D0080B485B000AF78600A4B1B689E
:10183C000A4AA2FB03235B0A7A6802FB03F3FB60F0
:10184C0000BFFB685A1EFA60002BF9D100BF00BF25
:10185C001437BD4680BC70471C000020D34D62106D
:10186C0080B582B000AF78607B68002B01D101237A
:10187C0041E07B6893F83D30DBB2002B06D17B68EE
:10188C00002283F83C207868FFF74CF87B68022232
:10189C0083F83D207B681A687B6804331946104630
:1018AC0000F06AFA7B68012283F846207B680122EB
:1018BC0083F83E207B68012283F83F207B6801225D
:1018CC0083F840207B68012283F841207B68012249
:1018DC0083F842207B68012283F843207B68012235
:1018EC0083F844207B68012283F845207B68012221
:1018FC0083F83D20002318460837BD4680BD000004
:10190C0080B485B000AF78607B6893F83D30DBB273
:10191C00012B01D0012335E07B68022283F83D20A6
:10192C007B681B68DA687B681B6842F00102DA602E
:10193C007B681B68164A934209D07B681B68B3F11D
:10194C00804F04D07B681B68124A934211D17B688C
:10195C001B689B6803F00703FB60FB68062B10D029
:10196C007B681B681A687B681B6842F001021A606E
:10197C0007E07B681B681A687B681B6842F00102F1
:10198C001A60002318461437BD4680BC704700BF50
:10199C00002C01400004004080B582B000AF78609C
:1019AC007B681B681B6903F00203022B22D17B6846
:1019BC001B68DB6803F00203022B1BD17B681B68DE
:1019CC006FF002021A617B6801221A777B681B6830
:1019DC009B6903F00303002B03D0786800F0B1F986
:1019EC0005E0786800F0A4F9786800F0B3F97B683A
:1019FC0000221A777B681B681B6903F00403042B15
:101A0C0022D17B681B68DB6803F00403042B1BD119
:101A1C007B681B686FF004021A617B6802221A77DC
:101A2C007B681B689B6903F44073002B03D07868B8
:101A3C0000F087F905E0786800F07AF9786800F032
:101A4C0089F97B6800221A777B681B681B6903F095
:101A5C000803082B22D17B681B68DB6803F00803A2
:101A6C00082B1BD17B681B686FF008021A617B681E
:101A7C0004221A777B681B68DB6903F00303002BD5
:101A8C0003D0786800F05DF905E0786800F050F953
:101A9C00786800F05FF97B6800221A777B681B6816
:101AAC001B6903F01003102B22D17B681B68DB68C9
:101ABC0003F01003102B1BD17B681B686FF0100216
:101ACC001A617B6808221A777B681B68DB6903F450
:101ADC004073002B03D0786800F033F905E0786888
:101AEC0000F026F9786800F035F97B6800221A7747
:101AFC007B681B681B6903F00103012B0ED17B680B
:101B0C001B68DB6803F00103012B07D17B681B68A2
:101B1C006FF001021A617868FEF75AFE7B681B6849
:101B2C001B6903F08003802B0ED17B681B68DB687C
:101B3C0003F08003802B07D17B681B686FF0800259
:101B4C001A61786800F067FA7B681B681B6903F000
:101B5C004003402B0ED17B681B68DB6803F040030D
:101B6C00402B07D17B681B686FF040021A617868C4
:101B7C0000F0F9F87B681B681B6903F02003202B2D
:101B8C000ED17B681B68DB6803F02003202B07D188
:101B9C007B681B686FF020021A61786800F032FADB
:101BAC0000BF0837BD4680BD80B584B000AF7860FB
:101BBC0039607B6893F83C30012B01D10223B3E0F0
:101BCC007B68012283F83C207B68022283F83D204D
:101BDC007B681B689B68FB60FB6823F07703FB60EA
:101BEC00FB6823F47F43FB607B681B68FA689A6090
:101BFC003B681B68B3F5005F3ED0B3F5005F00F2A5
:101C0C008780B3F5805F00F08580B3F5805F7FD867
:101C1C00702B1AD0702B7BD8602B50D0602B77D8C0
:101C2C00502B3CD0502B73D8402B58D0402B6FD816
:101C3C00302B64D0302B6BD8202B60D0202B67D866
:101C4C00002B5CD0102B5AD062E07B6818683B6884
:101C5C0099683B685A683B68DB6800F05CF97B6804
:101C6C001B689B68FB60FB6843F07703FB607B6839
:101C7C001B68FA689A604EE07B6818683B68996844
:101C8C003B685A683B68DB6800F045F97B681B6869
:101C9C009A687B681B6842F480429A603BE07B68E0
:101CAC0018683B6859683B68DB681A4600F0BCF85A
:101CBC007B681B685021184600F013F92BE07B68F9
:101CCC0018683B6859683B68DB681A4600F0DAF81C
:101CDC007B681B686021184600F003F91BE07B68E9
:101CEC0018683B6859683B68DB681A4600F09CF83A
:101CFC007B681B684021184600F0F3F80BE07B680A
:101D0C001A683B681B681946104600F0EAF802E0B6
:101D1C0000BF00E000BF7B68012283F83D207B6898
:101D2C00002283F83C20002318461037BD4680BDA6
:101D3C0080B483B000AF786000BF0C37BD4680BC68
:101D4C00704780B483B000AF786000BF0C37BD46DD
:101D5C0080BC704780B483B000AF786000BF0C3794
:101D6C00BD4680BC704780B483B000AF786000BFC4
:101D7C000C37BD4680BC704780B485B000AF78602E
:101D8C0039607B681B68FB607B68254A934207D0EF
:101D9C007B68B3F1804F03D07B68224A934208D111
:101DAC00FB6823F07003FB603B685B68FA681343C5
:101DBC00FB607B681A4A934207D07B68B3F1804F73
:101DCC0003D07B68174A934208D1FB6823F4407315
:101DDC00FB603B68DB68FA681343FB60FB6823F02D
:101DEC0080023B685B691343FB607B68FA681A608E
:101DFC003B689A687B68DA623B681A687B689A620F
:101E0C007B68074A934203D13B681A697B681A6363
:101E1C007B6801225A6100BF1437BD4680BC7047F5
:101E2C00002C01400004004080B487B000AFF86083
:101E3C00B9607A60FB681B6A7B61FB681B6A23F0E4
:101E4C000102FB681A62FB689B693B613B6923F0EA
:101E5C00F0033B617B681B013A6913433B617B696F
:101E6C0023F00A037B617A69BB6813437B61FB68CF
:101E7C003A699A61FB687A691A6200BF1C37BD46E1
:101E8C0080BC704780B487B000AFF860B9607A60EE
:101E9C00FB681B6A23F01002FB681A62FB689B69E3
:101EAC007B61FB681B6A3B617B6923F470437B613C
:101EBC007B681B037A6913437B613B6923F0A003A6
:101ECC003B61BB681B013A6913433B61FB687A6950
:101EDC009A61FB683A691A6200BF1C37BD4680BC28
:101EEC00704780B485B000AF786039607B689B68C0
:101EFC00FB60FB6823F07003FB603A68FB681343DC
:101F0C0043F00703FB607B68FA689A6000BF1437E4
:101F1C00BD4680BC704780B487B000AFF860B96034
:101F2C007A603B60FB689B687B617B6923F47F4331
:101F3C007B613B681A027B681A43BB6813437A695E
:101F4C0013437B61FB687A699A6000BF1C37BD46FE
:101F5C0080BC704780B485B000AF786039607B6816
:101F6C0093F83C30012B01D1022341E07B68012224
:101F7C0083F83C207B68022283F83D207B681B6839
:101F8C005B68FB607B681B689B68BB60FB6823F02D
:101F9C007003FB603B681B68FA681343FB607B684B
:101FAC001B68FA685A607B681B68144A934209D014
:101FBC007B681B68B3F1804F04D07B681B68104AA8
:101FCC0093420CD1BB6823F08003BB603B685B6819
:101FDC00BA681343BB607B681B68BA689A607B68FD
:101FEC00012283F83D207B68002283F83C200023EB
:101FFC0018461437BD4680BC704700BF002C01400A
:10200C000004004080B483B000AF786000BF0C3790
:10201C00BD4680BC704780B483B000AF786000BF11
:10202C000C37BD4680BC704770B500260C4D0D4C6E
:10203C00641BA410A64209D100F022F800260A4D18
:10204C000A4C641BA410A64205D170BD55F8043B84
:10205C0098470136EEE755F8043B98470136F2E70E
:10206C00C4200008C4200008C4200008C8200008B0
:10207C0003460244934200D1704703F8011BF9E771
:10208C00F8B500BFF8BC08BC9E467047F8B500BF59
:08209C00F8BC08BC9E46704729
:1020A40002030405060708090A0B0C0D0E0F101095
:1020B40000000000000000000102030406070809F4
:0420C40031010008DE
:0420C8000D010008FE
:1020CC000020000000400000008000000000000024
:1020DC00D007000001000000090000000024F400FB
:0820EC001000000001000000DB
:04000005080009E9FD
:00000001FF
